{
  "contractName": "Owned",
  "abi": [
    {
      "constant": true,
      "inputs": [],
      "name": "owner",
      "outputs": [
        {
          "name": "",
          "type": "address"
        }
      ],
      "payable": false,
      "stateMutability": "view",
      "type": "function"
    },
    {
      "inputs": [
        {
          "name": "_initOwner",
          "type": "address"
        }
      ],
      "payable": false,
      "stateMutability": "nonpayable",
      "type": "constructor"
    },
    {
      "anonymous": false,
      "inputs": [
        {
          "indexed": false,
          "name": "_newOwner",
          "type": "address"
        }
      ],
      "name": "LogChangeOwner",
      "type": "event"
    },
    {
      "constant": false,
      "inputs": [
        {
          "name": "_newOwner",
          "type": "address"
        }
      ],
      "name": "changeOwner",
      "outputs": [],
      "payable": false,
      "stateMutability": "nonpayable",
      "type": "function"
    }
  ],
  "bytecode": "0x608060405234801561001057600080fd5b506040516020806102f28339810180604052602081101561003057600080fd5b505160008054600160a060020a03909216600160a060020a0319909216919091179055610290806100626000396000f3fe60806040526004361061004b5763ffffffff7c01000000000000000000000000000000000000000000000000000000006000350416638da5cb5b8114610050578063a6f9dae11461008e575b600080fd5b34801561005c57600080fd5b506100656100d0565b6040805173ffffffffffffffffffffffffffffffffffffffff9092168252519081900360200190f35b34801561009a57600080fd5b506100ce600480360360208110156100b157600080fd5b503573ffffffffffffffffffffffffffffffffffffffff166100ec565b005b60005473ffffffffffffffffffffffffffffffffffffffff1681565b60005473ffffffffffffffffffffffffffffffffffffffff16331461017257604080517f08c379a000000000000000000000000000000000000000000000000000000000815260206004820152601760248201527f6d73672e73656e646572206973206e6f74206f776e6572000000000000000000604482015290519081900360640190fd5b73ffffffffffffffffffffffffffffffffffffffff811615156101f657604080517f08c379a000000000000000000000000000000000000000000000000000000000815260206004820152601860248201527f307830206173206f776e6572206e6f7420616c6c6f7765640000000000000000604482015290519081900360640190fd5b6000805473ffffffffffffffffffffffffffffffffffffffff831673ffffffffffffffffffffffffffffffffffffffff19909116811790915560408051918252517f95fd54179c11867fb083dd94347ea50f144dd4cfd7612b7bca169f162824af169181900360200190a15056fea165627a7a723058207248d5c2887bff0a87e45a2df983708d82d49b2e57102abf90e19df392b4dfda0029",
  "source": "// Copyright 2018 Energy Web Foundation\n// This file is part of the Origin Application brought to you by the Energy Web Foundation,\n// a global non-profit organization focused on accelerating blockchain technology across the energy sector,\n// incorporated in Zug, Switzerland.\n//\n// The Origin Application is free software: you can redistribute it and/or modify\n// it under the terms of the GNU General Public License as published by\n// the Free Software Foundation, either version 3 of the License, or\n// (at your option) any later version.\n// This is distributed in the hope that it will be useful,\n// but WITHOUT ANY WARRANTY and without an implied warranty of\n// MERCHANTABILITY or FITNESS FOR A PARTICULAR PURPOSE.  See the\n// GNU General Public License for more details, at <http://www.gnu.org/licenses/>.\n//\n// @authors: slock.it GmbH;  Martin Kuechler, martin.kuchler@slock.it; Heiko Burkhardt, heiko.burkhardt@slock.it\n\npragma solidity ^0.5.0;\n\ncontract Owned {\n    /// @dev `owner` is the only address that can call a function with this\n    modifier onlyOwner { require (msg.sender == owner, \"msg.sender is not owner\"); _; }\n\n    event LogChangeOwner(address _newOwner);\n\n    address public owner;\n\n    /// @notice The Constructor assigns the message sender to be `owner`\n    constructor(address _initOwner) public { owner = _initOwner;}\n\n    /// @notice `owner` can step down and assign some other address to this role\n    /// @param _newOwner The address of the new owner\n    function changeOwner (address _newOwner) external onlyOwner {\n        require(_newOwner != address(0),\"0x0 as owner not allowed\");\n        owner = _newOwner;\n        emit LogChangeOwner(_newOwner);\n    }\n}\n",
  "sourcePath": "/Users/bagaricj/Code/ew-utils-general-lib/contracts/Msc/Owned.sol",
  "compiler": {
    "name": "solc",
    "version": "0.5.0+commit.1d4f565a.Emscripten.clang"
  },
  "schemaVersion": "3.0.9",
  "updatedAt": "2019-05-16T15:13:11.207Z",
  "devdoc": {
    "methods": {
      "changeOwner(address)": {
        "params": {
          "_newOwner": "The address of the new owner"
        }
      }
    }
  },
  "userdoc": {
    "methods": {
      "changeOwner(address)": {
        "notice": "`owner` can step down and assign some other address to this role"
      },
      "constructor": "The Constructor assigns the message sender to be `owner`"
    }
  }
}